:020000040800F2
:10000000B0050020010100085B1E0008851D0008E6
:10001000591E000825060008F12400080000000011
:1000200000000000000000000000000001200008A7
:10003000F7070008000000005D1E0008032000080C
:100040001B0100081B0100081B0100081B01000820
:100050001B0100081B0100081B0100081B01000810
:100060001B0100081B0100081B0100081B01000800
:100070001B0100081B0100081B0100081B010008F0
:10008000B5070008C10700081B0100081B01000894
:100090001B0100081B0100081B0100081B010008D0
:1000A0001B0100081B0100081B0100081B010008C0
:1000B0001B010008592000081B0100081B01000853
:1000C0001B0100081B0100081B0100081B010008A0
:1000D0001B0100081B010008E52400081B010008A3
:1000E0001B0100081B0100081B010008DFF80CD0F1
:1000F00000F086FA0048004745290008B0050020B6
:100100000648804706480047FEE7FEE7FEE7FEE7B1
:10011000FEE7FEE7FEE7FEE7FEE7FEE75520000804
:10012000ED000008202A04DB203A21FA02F0002129
:10013000704721FA02F3D040C2F1200291400843F7
:1001400019467047D2B201E000F8012B491EFBD2DC
:1001500070470022F6E710B513460A4604461946D2
:10016000FFF7F0FF204610BD2DE9FE4F804681EAE3
:100170000300C00F0C46009021F0004123F0004521
:10018000B8EB0200A94105D24046214690461C46E4
:100190000B46024623F00040104347D0270DC7F31B
:1001A0000A00C3F30A510290401A019040286BDA0A
:1001B000C3F3130040F4801B0098924620B1002343
:1001C000D2EB030A63EB0B0B01985946C0F14002D6
:1001D000504600F097F906460D4650465946019A9A
:1001E00000F09FF910EB08006141002487EA1152EA
:1001F00084EAE7731A4340D0009A62B3019A012A55
:100200004FEA075215DC001B61EB02014FF0004280
:1002100002EA0752CDE90042001C41F58011324646
:100220002B4600F09FF903B0BDE8F08F4046214611
:10023000F9E7001B61EB0201001C41F58013001877
:100240005B412018A2F5001747EB030140EAD57087
:10025000B6196D4111E06D084FEA360645EAC075E2
:100260004FEA0752001B61EB0201001C41F58011AF
:1002700049084FEA30000019514132462B4603B07D
:10028000BDE8F04F00F05FB9009801224000002364
:10029000D0EB020263EBE073009821464FEAE07472
:1002A000B8EB000061EB0401E9E783F000435BE792
:1002B00081F0004158E72DE9FE4F81EA030404F084
:1002C000004421F0004100944FF0000B23F0004364
:1002D00050EA01045ED052EA03045BD0C3F30A542F
:1002E000C1F30A552C44A4F2F3340194A0FB025448
:1002F000C1F3130141F48011C3F3130343F48013DA
:1003000001FB024400FB034E840A970A44EA81542D
:1003100047EA8357A4FB076802958D0A05FB07850A
:100320004FEA932C04FB0C542705029D4FEA065814
:1003300047EA1637B5EB08056EEB070C870E920EF1
:1003400047EA811742EA8312A7FB0201B6EB0B01D1
:1003500064EB00042B0D43EA0C335E1844EB1C5095
:10036000DA465146E7FB0201C5F313044FEA0B33AB
:1003700043EA14534FEA0432019C43EA0603A4F112
:100380000C040294009CCDE900B400F0EBF803B03B
:10039000BDE8F08F00200146F9E72DE9F04D81EA34
:1003A000030404F0004B21F0004514464FF0000A0E
:1003B00023F0004150EA050220D054EA01021DD08A
:1003C000C5F30A570246C5F31303C1F31300C1F383
:1003D0000A5640F4801543F48013A7EB0608101B5F
:1003E000D64608F2FD3873EB050002D308F1010888
:1003F00001E092185B41B8F1000F03DA00200146DA
:10040000BDE8F08D00204FF48011064684460EE0D2
:10041000171B73EB050705D3121B63EB050306439C
:100420004CEA010C49084FEA300092185B4150EA4F
:100430000107EDD152EA030012D082EA040083EAF8
:100440000501084305D0101BAB4106D20122002351
:1004500006E000224FF0004302E06FF0010253106B
:100460001AEB06004CEB085110EB0A0041EB0B01B4
:10047000BDE8F04D00F067B80EB5C10F80EAE0703E
:100480000844CA07002140F233438DE80E000A46B3
:100490000B4600F067F803B000BD70B5C1F30A5217
:1004A00001F000450024C1F3130140F2FF3341F491
:1004B00080119A4201DA002070BD40F233439A4223
:1004C000A2F2334203DC5242FFF72CFE00E09040E0
:1004D0002C43F1D0404270BD30B50B4601460020A0
:1004E0002022012409E021FA02F59D4205D303FAF6
:1004F00002F5491B04FA02F52844151EA2F1010277
:10050000F1DC30BD202A04DB203A00FA02F10020A1
:1005100070479140C2F1200320FA03F31943904041
:100520007047202A06DBCB17203A41FA02F043EA53
:10053000E07306E041FA02F3D040C2F1200291409C
:1005400008431946704710B5141E73F1000408DA09
:10055000401C41F1000192185B411A4301D120F087
:10056000010010BD2DE9F04D92469B4611B1B1FA44
:1005700081F202E0B0FA80F220329046FFF7C2FF2B
:1005800004460F4640EA0A0041EA0B0153465A4628
:10059000084313D0114653EA010019D0C8F14002B4
:1005A0005046FFF7BFFD05460E46504659464246A7
:1005B000FFF7A8FF084305D0012004E02046394694
:1005C000BDE8F08D0020054346EAE0762C43374332
:1005D0000A986305E40AA0EB08000022FD0A44EA39
:1005E00047540A3002D500200146E9E701051019F9
:1005F0006941DDE9084500196941BDE8F04DA2E710
:10060000064C074D06E0E06840F0010394E807005F
:1006100098471034AC42F6D3FFF76CFDCC2A0008A3
:10062000EC2A0008FEE7000070B5594D05F12104E1
:100630006978207811B140F0800001E020F080005E
:100640002070A8780028207802D040F0400001E017
:1006500020F040002070E8780028207802D040F098
:10066000200001E020F02000207028790028207868
:1006700004D040F010002070B42003E020F01000FF
:100680002070002002F008FA68790028207802D053
:1006900040F0080001E020F008002070A879002850
:1006A000207802D040F0040001E020F00400207027
:1006B000E8790028207802D040F0020001E020F024
:1006C00002002070287A0028207802D040F0010033
:1006D00001E020F001002070287C0028607802D022
:1006E00040F0800001E020F080006070E87B00288E
:1006F000607802D040F0400001E020F040006070DF
:10070000687B0028607802D040F0100001E020F003
:1007100010006070A87B0028607802D040F02000B4
:1007200001E020F020006070E87A0028607802D0B4
:1007300040F0040001E020F004006070287B0028F5
:10074000607802D040F0080001E020F008006070FE
:10075000A87A0028607802D040F0020001E020F082
:1007600002006070687A0028607802D040F00100D2
:1007700001E020F001006070687C0028A07802D0C1
:1007800040F0010001E020F00100A07070BD000009
:100790000000002010B500F031F8012210210448BB
:1007A00000F0ABFABDE810404FF47A7000F09EB94B
:1007B00000080140014800F089B80000280100202D
:1007C000014800F083B800006C01002030B590F8BB
:1007D00040500124AC40C56B6C60046863604368A2
:1007E000102B036803D099600068C26030BD9A6026
:1007F0000068C16030BD7047704700000B4800B50D
:10080000816985B041F0040181618069694600F029
:100810000400049010200090012001900320039018
:10082000034800F075F905B000BD0000001002405B
:100830000008014010B590F821100024022903D0CF
:100840000421816301243DE001680A6822F00E0260
:100850000A6001680A6822F001020A601A4A016807
:10086000914201D1012121E0174A1432914201D174
:1008700010211BE0144A2832914201D1891515E05C
:10088000114A3C32914201D189140FE00E4A503294
:10089000914202D14FF4803108E00B4A6432914218
:1008A00002D14FF4801101E04FF08071064A083AFE
:1008B0005160012180F82110002180F82010416B47
:1008C00001B18847204610BD080002402DE9F05FC5
:1008D000C16B0C6801680B68D0F840C0042202FAB2
:1008E0000CF2494DDFF824A1494E4A4FDFF828B1F8
:1008F000DFF828E122422CD05A072AD50A6892064E
:1009000003D40A6822F004020A600168A94201D1F6
:10091000042219E0514501D1402215E0B14202D133
:100920004FF4806210E0B94202D14FF480420BE0F4
:10093000594502D14FF4802206E0714502D14FF4AF
:10094000800201E04FF080622F4908394A60C16A95
:100950003BE04FF0020808FA0CF818EA040F4FF0D9
:1009600000094FF0010235D05FEA837832D50B6879
:100970009B0605D40B6823F00A030B6080F8212046
:100980000168A94201D1022219E0514501D120227A
:1009900015E0B14202D14FF4007210E0B94202D129
:1009A0004FF400520BE0594502D14FF4003206E0FB
:1009B000714502D14FF4001201E04FF0007212496C
:1009C00008394A6080F82090816A00291AD0BDE871
:1009D000F05F0847082505FA0CF5254212D01B07E1
:1009E00010D50B6823F00E030B6090F84010C36B1A
:1009F00002FA01F15960826380F8212080F820908A
:100A0000016BE2E7BDE8F09F080002401C000240D5
:100A10003000024044000240580002406C00024096
:100A200030B528B308C8134914221944B1FBF2F1B8
:100A30008900C16310498163022141771A6843F636
:100A4000F0718A43D0E900142143D0E902452C43D8
:100A500021430469214344692143846921431143AB
:100A6000196000214163012242770177084630BDB9
:100A7000012030BDF8FFFDBF0000024070B5044604
:100A800090F82000002501280CD0012084F82000D7
:100A900094F821600020012E06D084F82000022561
:100AA000284670BD022070BD022684F82160A06334
:100AB0002068066826F0010606602046FFF786FEDD
:100AC000E06A00282068016802D041F00E0106E0CB
:100AD00021F0040101602068016841F00A01016011
:100AE0002068016841F001010160D9E770B5044652
:100AF00000F008F90546601C02D004480078044460
:100B000000F000F9401BA042FAD370BD280000207D
:100B10002DE9F84FDFF8B891002409F1040A0AF131
:100B2000040B23460F270BF1040EC9E00125A54055
:100B30002A40AA427DD1674ED1F804C0ACEB06082A
:100B4000B44532D014DCBCF1030F3AD009DCBCF15F
:100B5000000F2AD0BCF1010F1CD0BCF1020F31D123
:100B60001DE0BCF1110F17D0BCF1120F2AD119E012
:100B7000B8F5881F19D006DCB8F5803F15D0B8F558
:100B8000801F1FD111E0B8F5001F0ED0B8F5041F6B
:100B900018D10AE0CB6815E0CB681B1D12E0CB68CA
:100BA00008330FE0CB680C330CE08B682BB1012BC2
:100BB0004FF0080303D0456104E0042302E005611F
:100BC00000E00023FF2A01D8064601E000F10406F8
:100BD0004FEA840501D9A5F12005D6F8008007FA6F
:100BE00005FC28EA0C0803FA05F548EA0508C6F8EA
:100BF00000804D68ED0062D5374DAE6946F00106C4
:100C0000AE61AD6924F0030605F001050095334D92
:100C100006EB050CDCF80850A607360F07FA06F8B5
:100C200025EA0805DFF8B880404503D14FF00008F9
:100C300017E044E0DFF8AC80404502D14FF00108F6
:100C40000FE0DFF8A480404502D14FF0020808E031
:100C5000DFF89880404502D14FF0030801E04FF0E3
:100C6000040808FA06F848EA0508CCF808804D6838
:100C7000D9F80060ED034D4601D5164300E09643D8
:100C80002E604D68DAF80060AD03554601D5164375
:100C900000E096432E604D68DBF80060ED025D4693
:100CA00001D5164300E096432E604D68DEF80060E3
:100CB000AD02754601D5164300E096432E60641CD4
:100CC0000D682A46E5407FF431AFBDE8F88F00009B
:100CD000000401400000111000100240000001401B
:100CE00000080140000C01400010014000140140C8
:100CF0008068084000D0012070470AB10161704748
:100D00000904FBE7014880687047000028000020C4
:100D100002488168027811448160704728000020F1
:100D2000074810B5016841F010010160032000F090
:100D300075F8002000F006F800F024F8002010BD3F
:100D40000020024070B50D4D04464FF47A712878AA
:100D5000B1FBF0F00A490968B1FBF0F000F0ECFAE1
:100D600048B9102C07D200222146501E00F036F858
:100D700000206C6070BD012070BD000028000020C4
:100D8000340000200C4808B5816941F001018161FF
:100D9000816901F001010091C16941F08051C16197
:100DA000C06900F0805000900448416821F0E06183
:100DB00041F00071416008BD001002400000014098
:100DC000002809DB00F01F0201219140400980004A
:100DD00000F1E020C0F8001170470000F0B40E4BA5
:100DE0001B680C46C3F30223C3F10705042D00D989
:100DF0000425191D072901D2002300E0DB1E01266E
:100E000006FA05F1491E214099409E40761E164083
:100E10003143F0BC01F082BB0CED00E0064900F06C
:100E2000070208684FF6FF03184040EA0220034A11
:100E300010430860704700000CED00E00000FA0568
:100E40002DE9F0470F46050061D0434E306800F0B1
:100E50000700B84209D2306820F0070038433060FC
:100E6000306800F00700B84251D128683B4C810738
:100E700012D5400703D5606840F4E06060602878D0
:100E8000000703D5606840F4605060606068A9683E
:100E900020F0F000084360602878C00728D0686818
:100EA000012810D02168022810D0890700292EDAE5
:100EB000616821F0030101436160FFF723FF804671
:100EC00041F288390DE021688903EFE78901EDE7F8
:100ED000FFF718FFA0EB0801494502D90320BDE840
:100EE000F0876068696800F00C00B0EB810FEFD10B
:100EF000306800F00700B8420BD9306820F00700D6
:100F000038433060306800F00700B84201D001205B
:100F1000E5E72878400705D56068E96820F4E060D7
:100F2000084360602878000706D56068296920F4C6
:100F3000605040EAC100606000F038F86168084A1B
:100F4000C1F30311515CC8400649086006480068B7
:100F5000FFF7F8FE0020C2E7002002400010024028
:100F6000B42A0008340000202C0000200448054961
:100F700000684968044AC1F30221515CC8407047C7
:100F80003400002000100240C42A0008044805492B
:100F900000684968044AC1F3C221515CC8407047E7
:100FA0003400002000100240C42A000812A185B0BD
:100FB0000FC98DE80F0014A0144A0068049051680E
:100FC000134801F00C03042B10D0082B0ED1C1F3F1
:100FD0008343C9031DF803000AD5516804AAC1F36D
:100FE0004041515C0A4A5043B0FBF1F005B07047F4
:100FF00008494843FAE70000020304050607080908
:101000000A0B0C0D0E0F1010010200000010024020
:1010100000127A0000093D002DE9F84F040070D05D
:101020002078C04DC00749D06868C0F3810001280E
:1010300007D06868C0F38100022809D16868C0033E
:1010400006D52868800339D560680028E7D035E0E8
:101050006068B0F5803F0BD010B1B0F5A02F11D073
:10106000286820F480302860286820F4802002E07E
:10107000286840F480302860606890B1FFF742FE35
:1010800006460AE0286840F480202860F0E700BFA8
:10109000FFF738FE801B642873D828688003F7D5D3
:1010A0000CE0FFF72FFE064605E000BFFFF72AFE23
:1010B000801B6428F0D828688003F7D420789A4EE3
:1010C00080074FF001094FF0000839D5686810F02B
:1010D0000C0F07D06868C0F38100022809D1686846
:1010E000C00306D42868800714D52069012808D1D8
:1010F00010E02069B0B1C6F80090FFF703FE074684
:1011000005E00AE1FFF7FEFDC01B0228C4D82868ED
:101110008007F7D52868616920F0F80040EAC1002F
:1011200028600DE0C6F80080FFF7ECFD074604E0FC
:10113000FFF7E8FDC01B022823D828688007F7D4F2
:10114000207800072CD57948A169D9B1C0F8009062
:10115000FFF7D8FD074604E0FFF7D4FDC01B0228C7
:101160000FD8686A8007F7D571484FF4FA510068C4
:10117000B0FBF1F0009000BF0098411E0091FAD240
:101180000EE080E0C0F80080FFF7BCFD074604E0F9
:10119000FFF7B8FDC01B022875D8686A8007F7D42E
:1011A0002078400760D5E8690027C00008D4E869C6
:1011B00040F08050E861E869012700F0805000901D
:1011C0005C480168C90513D40168834641F4807105
:1011D0000160FFF797FD824606E000BFFFF792FD32
:1011E000A0EB0A0064284ED8DBF80000C005F5D556
:1011F000E06801280AD008B1052813D0286A20F039
:1012000001002862286A20F0040002E0286A40F009
:1012100001002862E06841F2883B98B1FFF772FD57
:1012200082460BE0286A40F004002862EEE700BF27
:10123000FFF768FDA0EB0A0159455AD8286A8007D4
:10124000F6D50CE0FFF75EFD824605E0FFF75AFD9C
:10125000A0EB0A0159454CD8286A8007F6D41FB183
:10126000E86920F08050E861E06988B36968C1F3FB
:101270008101022944D00228C6F8608004D0FFF71B
:1012800041FD044638E034E0FFF73CFD074604E04A
:10129000FFF738FDC01B02282BD828688001F7D43F
:1012A000206AB0F5803F05D16868A16820F400305D
:1012B00008436860D4E908010843696821F474119F
:1012C00008436860C6F86090FFF71CFD044606E01E
:1012D00025E000BFFFF716FD001B022809D828688B
:1012E0008001F7D51BE000BFFFF70CFD001B0228B3
:1012F00002D90320BDE8F88F28688001F4D40EE0FD
:101300000128F7D06868226A00F48031914204D144
:10131000616A00F47010884201D00120EAE70020E1
:10132000E8E7000000100240000042428004424210
:10133000340000200070004010B5401EB0F1807FE6
:1013400001D3012010BD4FF0E02460610F21601730
:1013500001F0E4F80020A06107202061002010BD0A
:101360007047704770B590F83C20012A26D00124C0
:1013700080F83C40022280F83D2003685A689D684E
:1013800022F070060A6832435A600D4B02689A4296
:1013900008D0B2F1804F05D00A4B9A4202D00A4BD6
:1013A0009A4204D1496825F080031943916080F87E
:1013B0003D40002180F83C10084670BD022070BD01
:1013C000002C0140000400400008004010B504005B
:1013D00003D094F83D0010B107E0012010BD0020BB
:1013E00084F83C00204600F01FF8022084F83D00FD
:1013F000211D206800F036FE012084F8460084F8A4
:101400003E0084F83F0084F8400084F8410084F8EE
:10141000420084F8430084F8440084F8450084F8CE
:101420003D00002010BD000008B501681048B1F172
:10143000804F14D00F4A914219D1C16941F0020185
:10144000C161C069002200F00200009003211D204C
:10145000FFF7C4FCBDE808401D20FFF7B1BCC1691F
:1014600041F00101C161C06900F00100009008BDB8
:10147000001002400004004090F83D10012901D006
:1014800001207047022180F83D100168CA6842F0CF
:101490000102CA6000680B49884208D0B0F1804F51
:1014A00005D00949884202D00849884204D18168A0
:1014B00001F00701062903D0016841F00101016034
:1014C00000207047002C014000040040000800404C
:1014D00070B5044690F83C00012817D0012584F827
:1014E0003C50022084F83D002068826822F0770298
:1014F00022F47F4282600868502830D00DDC20281A
:101500004DD005DC98B310283BD148E0022070BDD7
:10151000302844D0402834D139E0602828D07028C1
:1015200006D0B0F5805F2CD0B0F5005F29D10AE07D
:10153000CB68D1E90121206800F0D7FD20688168DF
:1015400041F0770109E0CB68D1E90121206800F082
:10155000CCFD2068816841F48041816011E0CA6857
:101560004968206800F076FE5021206807E016E008
:10157000CA684968206800F07EFE6021206800F09B
:10158000BEFD84F83D50002084F83C0070BDCA6860
:101590004968206800F05EFE40212068EFE722687D
:1015A00001461046EBE7704770B5044600680169D4
:1015B0004FF00005C943890715D4C168C94389079D
:1015C00011D4E91E0161012020772068806980071D
:1015D000204602D0FFF7E7FF04E000F0BDF8204608
:1015E00000F04CF9257720680169C943490717D4F1
:1015F000C168C943490713D46FF004010161022097
:1016000020772068806910F4407F204602D0FFF7E1
:10161000CAFF04E000F0A0F8204600F02FF925777B
:1016200020680169C943090716D4C168C94309077D
:1016300012D46FF008010161042020772068C0698E
:101640008007204602D0FFF7AEFF04E000F084F8E8
:10165000204600F013F9257720680169C943C906BF
:1016600017D4C168C943C90613D46FF010010161D2
:10167000082020772068C06910F4407F204602D0FF
:10168000FFF791FF04E000F067F8204600F0F6F85D
:10169000257720680169C943C90708D1C168C943D2
:1016A000C90704D1891E0161204600F037F920687E
:1016B0000169C943090609D4C168C943090605D4AB
:1016C0006FF0800101612046FFF74AFE2068016942
:1016D000C943490609D4C168C943490605D46FF016
:1016E00040010161204600F05BF920680169C943AF
:1016F00089060BD4C168C943890607D46FF020015D
:1017000001612046BDE87040FFF72BBE70BD0000B0
:1017100000B585B00021009101910291039100680C
:10172000B0F1804F11D10A48816941F00401816113
:101730008069694600F004000490012000900220B6
:10174000019003900348FFF7E3F905B000BD0000E6
:101750000010024000080140704770B5044690F840
:101760003C000D4601280AD0012084F83C0042B11B
:10177000042A18D0082A2AD00C2A4DD139E0022098
:1017800070BD206800F0C4FC2068816941F0080148
:1017900081612068816921F004018161206881698B
:1017A0002A69114311E0206800F0DAFC20688169A1
:1017B00041F4006181612068816921F48061816167
:1017C000206881692A6941EA0221816124E0206858
:1017D00000F0F2FC2068C16941F00801C161206895
:1017E000C16921F00401C1612068C1692A691143FE
:1017F00011E0206800F00CFD2068C16941F400612F
:10180000C1612068C16921F48061C1612068C1693A
:101810002A6941EA0221C161002084F83C0070BDC0
:1018200010B5040003D094F83D0010B107E001208A
:1018300010BD002084F83C00204600F01EF8022075
:1018400084F83D00211D206800F00CFC012084F884
:10185000460084F83E0084F83F0084F8400084F895
:10186000410084F8420084F8430084F8440084F87E
:10187000450084F83D00002010BD7047704700000F
:1018800010B50446022249B104290ED0082913D00C
:1018900094F84100012816D0012010BD94F83E00B4
:1018A0000128F9D184F83E200FE094F83F00012888
:1018B000F2D184F83F2008E094F840000128EBD1F1
:1018C00084F8402001E084F841200122206800F0E3
:1018D000FFFB0F492068884203D1426C42F400426A
:1018E00042642068884208D0B0F1804F05D0094991
:1018F000884202D00849884204D1816801F007017A
:10190000062903D0016841F001010160002010BDEB
:10191000002C0140000400400008004010B51849A8
:10192000006886B00968884228D1164800F004FB98
:10193000002823D1134C0DF1040C601D2178C170D7
:1019400062780271A3784371E47884718CE81E0098
:10195000817800914378027809480BA1883000F023
:10196000C9FD084982B21C398861054906B0883131
:10197000BDE81040A1F1400000F0C2B906B010BDB2
:10198000800000201C000020412C25692C25692C9A
:1019900025692C25692C25692C25692C25692C00A5
:1019A0007047704770B5026804461068D168536983
:1019B00010F00F0F53D003F0010501F490762E4381
:1019C0005FD0C20705D0CA0503D5E26B42F0010221
:1019D000E263420705D5DA0703D0E26B42F0020268
:1019E000E263820705D5DA0703D0E26B42F0040216
:1019F000E263020707D501F020022A4303D0E26B1D
:101A000042F00802E263E26B002A34D0800604D57B
:101A1000880602D5204600F0C3FC20684069E16BCF
:101A2000C0F3801001F008010143204624D000F0EB
:101A3000A0FC2068416949061AD5416921F040019E
:101A40004161606BA0B12D494163606BFEF7F2FE0E
:101A5000002810D0606B416BBDE8704008478306DA
:101A60000FD58B060DD52046BDE8704000F098BC20
:101A70002046FFF796FF70BDFFF793FF0020E0635D
:101A800070BD03062BD50B0629D594F83900212803
:101A9000F6D1A068B0F5805F01D12069B0B1206AAD
:101AA000411C2162216800784860E08C401E0004DF
:101AB000000CE084E4D12068C16821F08001C1609D
:101AC0002068C16841F04001C16070BD206A008893
:101AD000C0F308005060206A801C2062E5E74006E1
:101AE000F3D54806F1D5D168204621F04001D160F8
:101AF000202184F8391000F043F970BD9B220008C2
:101B000070B5040004D094F83900002510B106E047
:101B1000012070BD84F83850204600F023F82420BE
:101B200084F839002068C16821F40051C160204662
:101B300000F07CFC2068016921F49041016120687B
:101B4000416921F02A0141612068C16841F40051D6
:101B5000C160E563202084F8390084F83A00002051
:101B600070BD0000F0B585B00024064600940194D5
:101B70000294039400682B49884251D12A48C169D4
:101B800041F40031C161C16901F4003104918169FE
:101B900041F0040181618069244D00F0040004904B
:101BA00004200090022001900320039069462846FB
:101BB000FEF7AEFF0820CDE90004694628460294EE
:101BC000FEF7A6FF1B4D1A488027C5E90004C5E9AA
:101BD00002472C616C61AC612846EC61FEF720FF86
:101BE00008B1FEF709FE75636E621148124D14309C
:101BF00001C5102091C5104845F810496C61AC61D1
:101C0000EC61FEF70DFF08B1FEF7F6FD356300222B
:101C1000114626206E62FFF7E1F82620FFF7D0F884
:101C200005B0F0BD00440040001002400008014033
:101C30006C000240280100206C010020F8B5044629
:101C400090F83A0020283CD1C1B3BAB394F83800D8
:101C5000012836D0012084F83800A162A285002531
:101C6000E563222084F83A00636B17489862636B3F
:101C70001648D862636B16481863606B1346456359
:101C80000846666B216802463046091DFEF7F6FEDF
:101C9000206801684168009184F83850C16841F4B7
:101CA0008071C1602068416941F001014161206893
:101CB000416941F0400141610020F8BDFFE701208A
:101CC000FBE70220F9E70000F522000831230008B5
:101CD000AB22000810B5074900680968884208D19E
:101CE000032205490348FFF7A9FF034901201239E0
:101CF000087010BDC80000201200002070470000CE
:101D000070B5044690F83900202830D169B362B329
:101D100094F8380001282AD0012084F83800216284
:101D2000A284E2840025E563212084F83900236B36
:101D300010489862236B1048D862236B0F481863D1
:101D4000206B134645632668206B321DFEF796FE16
:101D500021686FF04000086084F8385020684169BD
:101D600041F080014161002070BD012070BD022062
:101D700070BD00003B23000869230008AB22000867
:101D800070477047FEE7000010B58EB0002407943E
:101D9000089409940A940B941C2168460C94FEF74D
:101DA000D8F917484FF08041016040F2CF21C0E9D7
:101DB000011440F2CF71C0E903148461FFF706FB00
:101DC0004FF48050079007A90D48FFF781FB0C489E
:101DD000FFF726FD0B940BA909480C94FFF7C2FAF4
:101DE0006020CDE90004029400226946044804946E
:101DF000FFF7B3FC0248FFF78BFC0EB010BD0000EC
:101E00003800002010B586B00024124800940194D8
:101E10000294039404940E490594016041F61F4115
:101E2000C0E9011441F28731C0E903148461FFF76E
:101E3000CDFA4FF48050009069460648FFF748FB02
:101E4000049404A903480594FFF78CFA06B010BD6A
:101E50000004004080000020FEE77047704700004B
:101E60002DE9F0410025154E2C4601271021304662
:101E7000FEF73EFF0028F9D01E2000F015FD1021CE
:101E80003046FEF735FF01280BD0C4F1070007FAF2
:101E900000F08543641CE4B2082CE7D32846BDE873
:101EA000F08110213046FEF723FF0128F9D0C4F15C
:101EB000070007FA00F0C0B20543EBE70008014055
:101EC0001C4AA2F11200117801F08003437001F066
:101ED0004003837001F02003C37001F0100303710D
:101EE00001F00803437101F00403837101F0020360
:101EF000C37101F001010172517801F08003037494
:101F000001F04003C37301F02003837301F0100359
:101F1000437301F00803037301F00403C37201F07B
:101F20000203837201F001014172917801F0010115
:101F3000417470471200002030B585B00446FEF7AA
:101F40005DFC2D4D002210212846FEF7D6FE142000
:101F5000FEF7CCFD012210212846FEF7CEFE1E2002
:101F600000F0A2FC2548816941F00401816180698B
:101F7000694600F0040004901020009000200190B9
:101F8000032003902846FEF7C3FD10212846FEF7E4
:101F9000AFFE70BB10212846FEF7AAFE0028F9D03C
:101FA00010212846FEF7A4FE0128F9D0FFF758FFBC
:101FB000A070FFF755FFE070FFF752FF2070FFF7AA
:101FC0004FFF6070FFF74CFF2071FEF717FC0122F6
:101FD00010212846FEF791FEA078E1786278084447
:101FE0002178114408442179884203D1002005B0AA
:101FF00030BDFFE70120FAE7000801400010024071
:102000007047FEF785BE30B58FB028216846FEF7D1
:10201000A0F814210AA8FEF79CF801210804CDE9D4
:1020200000100024029402250491CDE907504FF4DA
:10203000E01009906846FEF7EFFF0F20CDE90A0592
:102040006802CDE90C4002210AA80E94FEF7F8FEC2
:102050000FB030BD704700000148FFF7A5BA00007F
:1020600080000020F0B50268164B174C174D4FF05A
:102070008047984205D0B84203D0A04201D0A84280
:1020800003D122F070064A683243984205D0B84224
:1020900003D0A04201D0A84203D122F44074CA6800
:1020A00022434C6922F08002224302608A68C262A5
:1020B0000A688262984201D1096901630121416184
:1020C000F0BD0000002C014000040040000800406A
:1020D00010B501F01F030121046A99408C4304628A
:1020E000016A9A401143016210BD10B5846842EA4A
:1020F000032224F47F440A432243826010BD826895
:1021000022F070020A4342F007018160704700002C
:1021100030B5026A22F001020262026A43688469F1
:1021200024F073050C682C4322F002058A682A43C8
:102130000A4DA8420BD122F00805CA6823F4407367
:102140002A434D6922F004021D438B692B434360EF
:10215000846149684163026230BD0000002C014087
:1021600030B5026A22F010020262026A4368846992
:102170000D6824F4E64444EA05248D6822F0200228
:1021800042EA05120B4DA8420ED1CD6822F0800222
:1021900042EA05124D6923F4406343EA85038D69E1
:1021A00022F0400243EA8503436084614968816309
:1021B000026230BD002C014030B5026A22F4807208
:1021C0000262036A4268C46923F4007324F0730551
:1021D0000C682C438D6843EA05230C4DA8420ED1B0
:1021E000CD6823F4006343EA05234D6922F440528D
:1021F00042EA05128D6923F4806342EA05124260C7
:10220000C4614968C163036230BD0000002C014015
:1022100030B5026A22F480520262046A4268C369DD
:102220000D6823F4E64343EA05238D6824F4005443
:1022300044EA0534064DA84204D14D6922F4804297
:1022400042EA85124260C36149680164046230BD9C
:10225000002C014010B5036A046A24F001040462F2
:10226000846924F0F00444EA021423F00A020A43C9
:102270008461026210BD10B5036A23F0100303628B
:102280008369046A23F4704343EA023224F0A00312
:1022900043EA01118261016210BD10B5406A00215C
:1022A000C185C184FFF77DFB10BD70B5446A20680D
:1022B000406994F83910C0F3C0100025212904D1D9
:1022C00018B1E584204600F062F82068406994F86F
:1022D0003A10C0F38010222904D118B1E5852046B8
:1022E00000F047F8E06B40F01000E0632046FFF795
:1022F00058FB70BD10B50146406A09680968890637
:1023000013D40021C1850168CA6822F48072CA60B2
:1023100001684A6922F001024A6101684A6922F0B3
:1023200040024A61202180F83A10FFF7D3FC10BD2B
:1023300010B5406AFFF7E2FC10BD10B50146406AD7
:102340000968096889060CD40021C18401684A69BA
:1023500022F080024A610068C16841F04001C1601A
:1023600010BDFFF70DFD10BD10B5406AFFF709FD68
:1023700010BD0168CA6822F49072CA6001684A6997
:1023800022F001024A61202180F83A10704701686A
:10239000CA6822F0C002CA60202180F83910704754
:1023A00010B590F83A10222901D0022010BD8268A1
:1023B0004FF480539A4201D1016921B1816A9A4256
:1023C0001BD04AB10AE00268816A5268C2F308026F
:1023D0000A80816A891C08E0026972B10268526849
:1023E00002F07F020A70816A491C8162C18D491E18
:1023F0000904090CC18503D016E002685268F1E7B0
:102400000168CA6822F02002CA600168CA6822F422
:102410008072CA6001684A6922F001024A61202183
:1024200080F83A10FFF756FC002010BD70B5044646
:1024300000680169E26821F440511143016121699A
:10244000A0680843616908432168CA6841F20C63C7
:102450009A430243CA6020684169A26921F440712D
:10246000114341611E492068884202D1FEF78EFD6A
:1024700001E0FEF77BFD00EBC00101EB001260689C
:1024800064218000B2FBF0F3B3FBF1F36FF01806A8
:102490007343B2FBF0F5B2FBF0F605EB8305322394
:1024A00003EB0515B5FBF1F5B6FBF1F605F0F0050C
:1024B00005EB0615B2FBF0F6B2FBF0F0B0FBF1F065
:1024C0006FF01802504306EB800003EB0010B0FBE6
:1024D000F1F0216800F00F002844886070BD000012
:1024E000003801400148FFF75DBA0000C800002035
:1024F000FEE700000FB4084B10B504A902AA039828
:1025000000F02CF8044602A9002000F0C8F920468B
:1025100010BC5DF814FB00009F2800080907090E95
:10252000002804DB00F1E02080F80014704700F080
:102530000F0000F1E02080F8141D704702E008C889
:10254000121F08C1002AFAD170477047002001E02D
:1025500001C1121F002AFBD1704700002DE9FF4F77
:102560008BB088460546002606E025280BD0DDE91D
:102570000D1290476D1C761C28780028F5D10FB0FD
:102580003046BDE8F08F0024A146A2460122AE49A4
:1025900000E0044315F8013F203B02FA03F0084233
:1025A000F7D128782A2810D06FF02F022878A0F1D0
:1025B0003001092915D809EB890102EB410144F0EA
:1025C000020400EB01096D1CF0E758F8041B5FEAF8
:1025D000010903D544F40054C9F1000944F0020490
:1025E0006D1C28782E2817D115F8010F44F004042B
:1025F0002A280ED06FF02F022878A0F13001092987
:102600000AD80AEB8A0102EB410100EB010A6D1CBA
:10261000F2E758F804AB6D1C28786C280FD006DC64
:102620004C2817D068280DD06A2814D104E07428EB
:1026300010D07A280FD10DE044F400140AE044F4DD
:10264000801401E044F440146978814202D104F519
:1026500080146D1C6D1C2878692865D006DC002864
:102660008DD0632827D0642806D15DE06E2808D07D
:1026700073282AD0752877D0DDE90D129047761C93
:10268000E0E0C4F30250022809D003280DD0D8F8A6
:10269000001004280DD00E6008F10408D2E0D8F82C
:1026A0000010F217C1E90062F6E7D8F800100E80BA
:1026B000F2E70E70F0E718F8041B8DF80010002008
:1026C0008DF80100EB46012003E058F804BB4FF001
:1026D000FF3061074FF0000701D40AE07F1C574527
:1026E0000DDA8742FADB1BF807100029F6D106E065
:1026F0007F1C8742FCDB1BF807100029F8D1DDE9BD
:102700000D23A9EB07008146214600F0B1F83044C3
:10271000C61904E0DDE90D121BF8010B90477F1E7E
:10272000F8D22146484688E058F8040BC4F3025119
:102730004FF00A0B032900D100B2042900D140B2A6
:10274000002802DA40422D2102E0210505D52B2187
:102750008DF82410012104E006E0E10710D02021CB
:10276000F6E708AF089113E058F8040BC4F30251E0
:102770004FF00A0B032900D180B2042900D1C0B266
:102780000021EEE75946FDF7A7FE303107F8011D9D
:102790000028F7D1ADEB070000F1200B600702D550
:1027A00024F4803401E04FF0010ADA4502DDAAEB9F
:1027B0000B0000E00020824600EB0B01089801446A
:1027C000A9EB01000A90E00306D4DDE90D232146C0
:1027D0000A9800F04DF806444FF0000908E009A9F6
:1027E00011F80900DDE90D12904709F10109761C85
:1027F00008998945F3DBE0030CD5DDE90D2321467B
:102800000A9800F035F8064404E0DDE90D123020A6
:102810009047761CBAF10001AAF1010AF5DC05E047
:10282000DDE90D1217F8010B9047761CBBF1000192
:10283000ABF1010BF4DC0A982146DDE90D2300F031
:1028400005F806446D1C97E6092801002DE9F041C2
:10285000044600251E461746880404D405E0394680
:102860002020B0476D1C641EF9D52846BDE8F081D4
:102870002DE9F041044600251E469046C80301D5C7
:10288000302700E02027880404D505E0414638467B
:10289000B0476D1C641EF9D52846BDE8F0810A6872
:1028A000531C0B601070704747E000BF00BF00BFB3
:1028B00000BF00BF00BF00BF00BF00BF00BF00BF20
:1028C00000BF00BF00BF00BF00BF00BF00BF00BF10
:1028D00000BF00BF00BF00BF00BF00BF00BF00BF00
:1028E00000BF00BF00BF00BF00BF00BF00BF00BFF0
:1028F00000BF00BF00BF00BF00BF00BF00BF00BFE0
:1029000000BF00BF00BF00BF00BF00BF00BF00BFCF
:1029100000BF00BF00BF00BF00BF00BF00BF00BFBF
:1029200000BF00BF00BF00BF00BF00BF00BF00BFAF
:1029300000BF00BF00BF00BF00BF401EC0B2B4D286
:102940007047000086B0FEF7EBF9FDF723FFFFF7B5
:102950005AFB0024354D0094019402940394A86915
:1029600040F02000A861A86900F020000490A86948
:1029700040F00400A861A8692D4F00F004004FF456
:1029800004760490002231463846FEF7B6F901205D
:102990000096CDE901040220039069463846FEF70F
:1029A000B7F8686940F0010068616869002200F0CA
:1029B0000100009001211020FEF710FA1020FEF710
:1029C000FFF9002202211120FEF708FA1120FEF77C
:1029D000F7F9FFF7D9F9FFF715FA1748154901601C
:1029E0004FF4E131C0E901140C21C460C0E9044195
:1029F0008461C461FFF784F80F4800219038FEF726
:102A00003FFF0D484838FEF737FD03220B490A48BF
:102A1000FFF714F9094D123D28780028FCD0FFF784
:102A20004FFAFDF701FE2C70F6E70000001002409F
:102A30000008014000440040C800002012000020AF
:102A40002DE9F05F82461D4614460F461046DDF81C
:102A500028B0FDF711FD80468946281BFDF70CFDC7
:102A600005460E46A7EB0A00FDF706FD04460F4695
:102A7000ABEB0A00FDF700FD22463B46FDF78DFC5F
:102A80002A463346FDF717FC42464B46FDF76CFBE2
:102A9000BDE8F05FFDF701BD08B5FA2300903222D2
:102AA000B4210020FFF7CCFF01490968486308BD45
:102AB00038000020000000000000000001020304B4
:102AC000060708090000000001020304EC2A0008C0
:102AD00000000020380000003C250008242B0008DE
:102AE00038000020780500004C2500080000000098
:102AF00000000000000000000000000000000000D6
:102B000000000000000000000000000000000000C5
:102B100000000000010000001000000000000000A4
:042B20000024F40099
:04000005080000ED02
:00000001FF
